{
  "contractName": "Fantasy",
  "abi": [
    {
      "constant": false,
      "inputs": [],
      "name": "PayoutPlayers",
      "outputs": [],
      "payable": false,
      "stateMutability": "nonpayable",
      "type": "function"
    },
    {
      "constant": false,
      "inputs": [
        {
          "name": "teamName",
          "type": "string"
        }
      ],
      "name": "SubmitPayment",
      "outputs": [],
      "payable": true,
      "stateMutability": "payable",
      "type": "function"
    },
    {
      "constant": false,
      "inputs": [],
      "name": "getNumberOfTeams",
      "outputs": [
        {
          "name": "",
          "type": "uint256"
        }
      ],
      "payable": false,
      "stateMutability": "nonpayable",
      "type": "function"
    },
    {
      "constant": false,
      "inputs": [
        {
          "name": "pos",
          "type": "uint256"
        }
      ],
      "name": "getTeamName",
      "outputs": [
        {
          "name": "",
          "type": "string"
        }
      ],
      "payable": false,
      "stateMutability": "nonpayable",
      "type": "function"
    },
    {
      "constant": false,
      "inputs": [],
      "name": "setKittyValue",
      "outputs": [
        {
          "name": "",
          "type": "bool"
        }
      ],
      "payable": false,
      "stateMutability": "nonpayable",
      "type": "function"
    },
    {
      "inputs": [
        {
          "name": "teamName",
          "type": "string"
        }
      ],
      "payable": false,
      "stateMutability": "nonpayable",
      "type": "function",
      "constant": false,
      "name": "getTeamAccount",
      "outputs": [
        {
          "name": "",
          "type": "address"
        }
      ]
    },
    {
      "constant": false,
      "inputs": [],
      "name": "getKittyValue",
      "outputs": [
        {
          "name": "",
          "type": "uint256"
        }
      ],
      "payable": false,
      "stateMutability": "nonpayable",
      "type": "function"
    },
    {
      "inputs": [],
      "payable": false,
      "stateMutability": "nonpayable",
      "type": "constructor"
    }
  ],
  "bytecode": "0x6060604052600c604051805910620000145750595b9080825280602002602001820160405280156200004e57816020015b6200003a6200008e565b815260200190600190039081620000305790505b506001908051906020019062000066929190620000a2565b50600060045534156200007857600080fd5b6000600281905550600060038190555062000235565b602060405190810160405280600081525090565b828054828255906000526020600020908101928215620000f6579160200282015b82811115620000f5578251829080519060200190620000e492919062000109565b5091602001919060010190620000c3565b5b50905062000105919062000190565b5090565b828054600181600116156101000203166002900490600052602060002090601f016020900481019282601f106200014c57805160ff19168380011785556200017d565b828001600101855582156200017d579182015b828111156200017c5782518255916020019190600101906200015f565b5b5090506200018c9190620001c1565b5090565b620001be91905b80821115620001ba5760008181620001b09190620001e9565b5060010162000197565b5090565b90565b620001e691905b80821115620001e2576000816000905550600101620001c8565b5090565b90565b50805460018160011615610100020316600290046000825580601f1062000211575062000232565b601f016020900490600052602060002090810190620002319190620001c1565b5b50565b61080780620002456000396000f300606060405260043610610083576000357c0100000000000000000000000000000000000000000000000000000000900463ffffffff1680632333a5a61461008857806346504f931461009d57806351919abc146100ef5780637ab60d48146101185780637c8ebb42146101b4578063c18a79e8146101e1578063cfd1a3391461027e575b600080fd5b341561009357600080fd5b61009b6102a7565b005b6100ed600480803590602001908201803590602001908080601f016020809104026020016040519081016040528093929190818152602001838380828437820191505050505050919050506103de565b005b34156100fa57600080fd5b610102610504565b6040518082815260200191505060405180910390f35b341561012357600080fd5b610139600480803590602001909190505061050e565b6040518080602001828103825283818151815260200191508051906020019080838360005b8381101561017957808201518184015260208101905061015e565b50505050905090810190601f1680156101a65780820380516001836020036101000a031916815260200191505b509250505060405180910390f35b34156101bf57600080fd5b6101c76105d0565b604051808215151515815260200191505060405180910390f35b34156101ec57600080fd5b61023c600480803590602001908201803590602001908080601f016020809104026020016040519081016040528093929190818152602001838380828437820191505050505050919050506105e4565b604051808273ffffffffffffffffffffffffffffffffffffffff1673ffffffffffffffffffffffffffffffffffffffff16815260200191505060405180910390f35b341561028957600080fd5b610291610678565b6040518082815260200191505060405180910390f35b60008060008060035410156102bb576103d9565b600092505b6001805490508310156103d8576001838154811015156102dc57fe5b9060005260206000209001915060046002548115156102f757fe5b04905060008260405180828054600181600116156101000203166002900480156103585780601f10610336576101008083540402835291820191610358565b820191906000526020600020905b815481529060010190602001808311610344575b5050915050908152602001604051809103902060009054906101000a900473ffffffffffffffffffffffffffffffffffffffff1673ffffffffffffffffffffffffffffffffffffffff166108fc829081150290604051600060405180830381858888f1935050505015156103cb57600080fd5b82806001019350506102c0565b5b505050565b6000803491503390506004548210156103f6576104ff565b806000846040518082805190602001908083835b60208310151561042f578051825260208201915060208101905060208303925061040a565b6001836020036101000a038019825116818451168082178552505050505050905001915050908152602001604051809103902060006101000a81548173ffffffffffffffffffffffffffffffffffffffff021916908373ffffffffffffffffffffffffffffffffffffffff16021790555081600260008282540192505081905550600360008154809291906001019190505550600180548060010182816104d69190610682565b9160005260206000209001600085909190915090805190602001906104fc9291906106ae565b50505b505050565b6000600354905090565b61051661072e565b60018281548110151561052557fe5b90600052602060002090018054600181600116156101000203166002900480601f0160208091040260200160405190810160405280929190818152602001828054600181600116156101000203166002900480156105c45780601f10610599576101008083540402835291602001916105c4565b820191906000526020600020905b8154815290600101906020018083116105a757829003601f168201915b50505050509050919050565b600060028054016002819055506001905090565b600080826040518082805190602001908083835b60208310151561061d57805182526020820191506020810190506020830392506105f8565b6001836020036101000a038019825116818451168082178552505050505050905001915050908152602001604051809103902060009054906101000a900473ffffffffffffffffffffffffffffffffffffffff169050919050565b6000600254905090565b8154818355818115116106a9578183600052602060002091820191016106a89190610742565b5b505050565b828054600181600116156101000203166002900490600052602060002090601f016020900481019282601f106106ef57805160ff191683800117855561071d565b8280016001018555821561071d579182015b8281111561071c578251825591602001919060010190610701565b5b50905061072a919061076e565b5090565b602060405190810160405280600081525090565b61076b91905b80821115610767576000818161075e9190610793565b50600101610748565b5090565b90565b61079091905b8082111561078c576000816000905550600101610774565b5090565b90565b50805460018160011615610100020316600290046000825580601f106107b957506107d8565b601f0160209004906000526020600020908101906107d7919061076e565b5b505600a165627a7a72305820744c53e80bf1818f870123a9eca9b04974b3ac40808bc40bf8eda5f8125909ce0029",
  "source": "pragma solidity ^0.4.17;\r\n\r\ncontract Fantasy {\r\n\r\n\r\n\tmapping (string => address) teams;\r\n\tstring[] teamNames = new string[](12);\r\n\tuint kitty;\r\n\tuint players; \r\n\tuint min_cost = 0;\r\n\r\n\t//Constructor\r\n\tfunction Fantasy() {\r\n\t\tkitty = 0;\r\n\t\tplayers = 0;\r\n\t}\r\n\r\n\tfunction SubmitPayment(string teamName) payable {\r\n\r\n\t\tuint payment = msg.value; \r\n\t\taddress account = msg.sender;\r\n\r\n\t\t//Check if payment is valid \r\n\t\tif(payment < min_cost) {\r\n\t\t\t//Send error and return payment\r\n\t\t}\r\n\t\telse {\r\n\t\t\tteams[teamName] = account; \r\n\t\t\tkitty += payment; \r\n\t\t\tplayers++;\r\n\t\t\tteamNames.push(teamName); \r\n\t\t}\r\n\r\n\t}\r\n\t\r\n\tfunction PayoutPlayers() {\r\n\t\r\n\t\t//Structure should be: Conditons, effects, interaction\t\r\n\r\n\t\t//TODO\t\r\n\t\t//Implement Oracle to get season stats from Yahoo API\r\n\r\n\t\t//For now iterate over number of players (currently the only condition)\r\n\t\t//and pay out percentages (effects, uinteractions)\r\n\t\tif(players < 0) { \r\n\t\t\t//Throw error\r\n\t\t}\r\n\t\telse {\t\r\n\t\t\tfor(uint i = 0; i < teamNames.length; i++) {\r\n\t\t\t\tstring name = teamNames[i];\r\n\t\t\t\tuint amount = kitty/4;\r\n\r\n\t\t\t\tteams[name].transfer(amount);\t\r\n\t\t\t}\r\n\t\t}\r\n\r\n\t}\r\n\r\n\tfunction setKittyValue() public returns(bool) {\r\n\r\n\t\tkitty = kitty + 2;\r\n\t\treturn true;\r\n\t}\r\n\r\n\tfunction getKittyValue() public returns(uint) {\r\n\t\treturn kitty;\r\n\t}\r\n\r\n\tfunction getTeamName(uint pos) public returns(string) {\r\n\t\treturn teamNames[pos];\r\n\t}\r\n\r\n\tfunction getTeamAccount(string teamName) public returns(address) {\r\n\t\treturn teams[teamName];\r\n\t}\r\n\r\n\tfunction getNumberOfTeams() public returns(uint) {\r\n\t\treturn players;\r\n\t}\r\n\r\n\r\n\r\n\t//Pay out to players\r\n\t//Ensure season end date is valid\r\n\t//Read season stats\r\n\t//Create rankings and who earns what based on stats\r\n\t//Send ether to correct accounts \r\n\r\n}\r\n",
  "sourcePath": "C:\\Users\\asad.m.khan\\Documents\\Dev\\blockchain\\truffle\\fantasy_football\\contracts\\Fantasy.sol",
  "compiler": {
    "name": "solc",
    "version": "0.4.18+commit.9cf6e910.Emscripten.clang"
  },
  "schemaVersion": "1.0.1",
  "updatedAt": "2018-01-05T21:14:14.659Z"
}